{"abi":[{"type":"constructor","inputs":[],"stateMutability":"nonpayable"},{"type":"function","name":"accessRights","inputs":[{"name":"","type":"bytes32","internalType":"bytes32"}],"outputs":[{"name":"","type":"bool","internalType":"bool"}],"stateMutability":"view"},{"type":"function","name":"checkAccess","inputs":[{"name":"teamId","type":"uint256","internalType":"uint256"},{"name":"gameId","type":"uint256","internalType":"uint256"},{"name":"userAddress","type":"address","internalType":"address"}],"outputs":[{"name":"","type":"bool","internalType":"bool"}],"stateMutability":"view"},{"type":"function","name":"owner","inputs":[],"outputs":[{"name":"","type":"address","internalType":"address"}],"stateMutability":"view"},{"type":"function","name":"purchaseAccess","inputs":[{"name":"tokenAddress","type":"address","internalType":"address"},{"name":"teamId","type":"uint256","internalType":"uint256"},{"name":"gameId","type":"uint256","internalType":"uint256"}],"outputs":[],"stateMutability":"nonpayable"},{"type":"function","name":"renounceOwnership","inputs":[],"outputs":[],"stateMutability":"nonpayable"},{"type":"function","name":"transferOwnership","inputs":[{"name":"newOwner","type":"address","internalType":"address"}],"outputs":[],"stateMutability":"nonpayable"},{"type":"event","name":"AccessGranted","inputs":[{"name":"user","type":"address","indexed":true,"internalType":"address"},{"name":"teamId","type":"uint256","indexed":false,"internalType":"uint256"},{"name":"gameId","type":"uint256","indexed":false,"internalType":"uint256"}],"anonymous":false},{"type":"event","name":"OwnershipTransferred","inputs":[{"name":"previousOwner","type":"address","indexed":true,"internalType":"address"},{"name":"newOwner","type":"address","indexed":true,"internalType":"address"}],"anonymous":false},{"type":"error","name":"OwnableInvalidOwner","inputs":[{"name":"owner","type":"address","internalType":"address"}]},{"type":"error","name":"OwnableUnauthorizedAccount","inputs":[{"name":"account","type":"address","internalType":"address"}]}],"bytecode":{"object":"0x608060405234801561001057600080fd5b5033600073ffffffffffffffffffffffffffffffffffffffff168173ffffffffffffffffffffffffffffffffffffffff16036100845760006040517f1e4fbdf700000000000000000000000000000000000000000000000000000000815260040161007b919061019e565b60405180910390fd5b6100938161009960201b60201c565b506101b9565b60008060009054906101000a900473ffffffffffffffffffffffffffffffffffffffff169050816000806101000a81548173ffffffffffffffffffffffffffffffffffffffff021916908373ffffffffffffffffffffffffffffffffffffffff1602179055508173ffffffffffffffffffffffffffffffffffffffff168173ffffffffffffffffffffffffffffffffffffffff167f8be0079c531659141344cd1fd0a4f28419497f9722a3daafe3b4186f6b6457e060405160405180910390a35050565b600073ffffffffffffffffffffffffffffffffffffffff82169050919050565b60006101888261015d565b9050919050565b6101988161017d565b82525050565b60006020820190506101b3600083018461018f565b92915050565b610a4e806101c86000396000f3fe608060405234801561001057600080fd5b50600436106100625760003560e01c806336aec74814610067578063715018a6146100975780637a7f3453146100a15780638da5cb5b146100d1578063922d9118146100ef578063f2fde38b1461010b575b600080fd5b610081600480360381019061007c919061062b565b610127565b60405161008e9190610699565b60405180910390f35b61009f610162565b005b6100bb60048036038101906100b691906106ea565b610176565b6040516100c89190610699565b60405180910390f35b6100d9610196565b6040516100e69190610726565b60405180910390f35b61010960048036038101906101049190610741565b6101bf565b005b61012560048036038101906101209190610794565b610383565b005b600080610135858585610409565b90506001600082815260200190815260200160002060009054906101000a900460ff169150509392505050565b61016a61043f565b61017460006104c6565b565b60016020528060005260406000206000915054906101000a900460ff1681565b60008060009054906101000a900473ffffffffffffffffffffffffffffffffffffffff16905090565b60006101cc838333610409565b90506001600082815260200190815260200160002060009054906101000a900460ff161561022f576040517f08c379a00000000000000000000000000000000000000000000000000000000081526004016102269061081e565b60405180910390fd5b60008490506000670de0b6b3a764000090508173ffffffffffffffffffffffffffffffffffffffff166323b872dd3330846040518463ffffffff1660e01b815260040161027e9392919061084d565b6020604051808303816000875af115801561029d573d6000803e3d6000fd5b505050506040513d601f19601f820116820180604052508101906102c191906108b0565b610300576040517f08c379a00000000000000000000000000000000000000000000000000000000081526004016102f790610929565b60405180910390fd5b600180600085815260200190815260200160002060006101000a81548160ff0219169083151502179055503373ffffffffffffffffffffffffffffffffffffffff167fb045361b5312ffd670a2941e0b6fa95fbd69b7ba26cbdc140da5f6ce128e97628686604051610373929190610949565b60405180910390a2505050505050565b61038b61043f565b600073ffffffffffffffffffffffffffffffffffffffff168173ffffffffffffffffffffffffffffffffffffffff16036103fd5760006040517f1e4fbdf70000000000000000000000000000000000000000000000000000000081526004016103f49190610726565b60405180910390fd5b610406816104c6565b50565b6000838383604051602001610420939291906109db565b6040516020818303038152906040528051906020012090509392505050565b61044761058a565b73ffffffffffffffffffffffffffffffffffffffff16610465610196565b73ffffffffffffffffffffffffffffffffffffffff16146104c45761048861058a565b6040517f118cdaa70000000000000000000000000000000000000000000000000000000081526004016104bb9190610726565b60405180910390fd5b565b60008060009054906101000a900473ffffffffffffffffffffffffffffffffffffffff169050816000806101000a81548173ffffffffffffffffffffffffffffffffffffffff021916908373ffffffffffffffffffffffffffffffffffffffff1602179055508173ffffffffffffffffffffffffffffffffffffffff168173ffffffffffffffffffffffffffffffffffffffff167f8be0079c531659141344cd1fd0a4f28419497f9722a3daafe3b4186f6b6457e060405160405180910390a35050565b600033905090565b600080fd5b6000819050919050565b6105aa81610597565b81146105b557600080fd5b50565b6000813590506105c7816105a1565b92915050565b600073ffffffffffffffffffffffffffffffffffffffff82169050919050565b60006105f8826105cd565b9050919050565b610608816105ed565b811461061357600080fd5b50565b600081359050610625816105ff565b92915050565b60008060006060848603121561064457610643610592565b5b6000610652868287016105b8565b9350506020610663868287016105b8565b925050604061067486828701610616565b9150509250925092565b60008115159050919050565b6106938161067e565b82525050565b60006020820190506106ae600083018461068a565b92915050565b6000819050919050565b6106c7816106b4565b81146106d257600080fd5b50565b6000813590506106e4816106be565b92915050565b600060208284031215610700576106ff610592565b5b600061070e848285016106d5565b91505092915050565b610720816105ed565b82525050565b600060208201905061073b6000830184610717565b92915050565b60008060006060848603121561075a57610759610592565b5b600061076886828701610616565b9350506020610779868287016105b8565b925050604061078a868287016105b8565b9150509250925092565b6000602082840312156107aa576107a9610592565b5b60006107b884828501610616565b91505092915050565b600082825260208201905092915050565b7f6861732061636365737300000000000000000000000000000000000000000000600082015250565b6000610808600a836107c1565b9150610813826107d2565b602082019050919050565b60006020820190508181036000830152610837816107fb565b9050919050565b61084781610597565b82525050565b60006060820190506108626000830186610717565b61086f6020830185610717565b61087c604083018461083e565b949350505050565b61088d8161067e565b811461089857600080fd5b50565b6000815190506108aa81610884565b92915050565b6000602082840312156108c6576108c5610592565b5b60006108d48482850161089b565b91505092915050565b7f7472616e73666572206661696c65640000000000000000000000000000000000600082015250565b6000610913600f836107c1565b915061091e826108dd565b602082019050919050565b6000602082019050818103600083015261094281610906565b9050919050565b600060408201905061095e600083018561083e565b61096b602083018461083e565b9392505050565b6000819050919050565b61098d61098882610597565b610972565b82525050565b60008160601b9050919050565b60006109ab82610993565b9050919050565b60006109bd826109a0565b9050919050565b6109d56109d0826105ed565b6109b2565b82525050565b60006109e7828661097c565b6020820191506109f7828561097c565b602082019150610a0782846109c4565b60148201915081905094935050505056fea2646970667358221220db62c578be26a39d4f7c82b6a530583a2d22bb74df8a0c8b809fd51c5b6ecff864736f6c634300081c0033","linkReferences":{}},"methodIdentifiers":{"accessRights(bytes32)":"7a7f3453","checkAccess(uint256,uint256,address)":"36aec748","owner()":"8da5cb5b","purchaseAccess(address,uint256,uint256)":"922d9118","renounceOwnership()":"715018a6","transferOwnership(address)":"f2fde38b"},"id":21}