{"abi":[{"type":"constructor","inputs":[],"stateMutability":"nonpayable"},{"type":"function","name":"PROPOSAL_FEE","inputs":[],"outputs":[{"name":"","type":"uint256","internalType":"uint256"}],"stateMutability":"view"},{"type":"function","name":"executeProposal","inputs":[{"name":"proposalId","type":"uint256","internalType":"uint256"}],"outputs":[],"stateMutability":"nonpayable"},{"type":"function","name":"getProposalDetails","inputs":[{"name":"proposalId","type":"uint256","internalType":"uint256"}],"outputs":[{"name":"contentHash","type":"bytes32","internalType":"bytes32"},{"name":"teamId","type":"uint256","internalType":"uint256"},{"name":"voteCount","type":"uint256","internalType":"uint256"},{"name":"executed","type":"bool","internalType":"bool"},{"name":"deadline","type":"uint256","internalType":"uint256"},{"name":"proposer","type":"address","internalType":"address"}],"stateMutability":"view"},{"type":"function","name":"hasVoted","inputs":[{"name":"proposalId","type":"uint256","internalType":"uint256"},{"name":"voter","type":"address","internalType":"address"}],"outputs":[{"name":"","type":"bool","internalType":"bool"}],"stateMutability":"view"},{"type":"function","name":"owner","inputs":[],"outputs":[{"name":"","type":"address","internalType":"address"}],"stateMutability":"view"},{"type":"function","name":"proposals","inputs":[{"name":"","type":"uint256","internalType":"uint256"}],"outputs":[{"name":"contentHash","type":"bytes32","internalType":"bytes32"},{"name":"teamId","type":"uint256","internalType":"uint256"},{"name":"voteCount","type":"uint256","internalType":"uint256"},{"name":"executed","type":"bool","internalType":"bool"},{"name":"deadline","type":"uint256","internalType":"uint256"},{"name":"proposer","type":"address","internalType":"address"}],"stateMutability":"view"},{"type":"function","name":"registerProposal","inputs":[{"name":"proposalId","type":"uint256","internalType":"uint256"},{"name":"contentHash","type":"bytes32","internalType":"bytes32"},{"name":"teamId","type":"uint256","internalType":"uint256"},{"name":"deadline","type":"uint256","internalType":"uint256"}],"outputs":[],"stateMutability":"nonpayable"},{"type":"function","name":"renounceOwnership","inputs":[],"outputs":[],"stateMutability":"nonpayable"},{"type":"function","name":"requiredVotes","inputs":[],"outputs":[{"name":"","type":"uint256","internalType":"uint256"}],"stateMutability":"view"},{"type":"function","name":"setRequiredVotes","inputs":[{"name":"newRequiredVotes","type":"uint256","internalType":"uint256"}],"outputs":[],"stateMutability":"nonpayable"},{"type":"function","name":"setTeamToken","inputs":[{"name":"teamId","type":"uint256","internalType":"uint256"},{"name":"tokenAddress","type":"address","internalType":"address"}],"outputs":[],"stateMutability":"nonpayable"},{"type":"function","name":"teamTokens","inputs":[{"name":"","type":"uint256","internalType":"uint256"}],"outputs":[{"name":"","type":"address","internalType":"address"}],"stateMutability":"view"},{"type":"function","name":"transferOwnership","inputs":[{"name":"newOwner","type":"address","internalType":"address"}],"outputs":[],"stateMutability":"nonpayable"},{"type":"function","name":"vote","inputs":[{"name":"proposalId","type":"uint256","internalType":"uint256"}],"outputs":[],"stateMutability":"nonpayable"},{"type":"event","name":"OwnershipTransferred","inputs":[{"name":"previousOwner","type":"address","indexed":true,"internalType":"address"},{"name":"newOwner","type":"address","indexed":true,"internalType":"address"}],"anonymous":false},{"type":"event","name":"ProposalExecuted","inputs":[{"name":"proposalId","type":"uint256","indexed":true,"internalType":"uint256"},{"name":"passed","type":"bool","indexed":false,"internalType":"bool"}],"anonymous":false},{"type":"event","name":"ProposalRegistered","inputs":[{"name":"proposalId","type":"uint256","indexed":true,"internalType":"uint256"},{"name":"contentHash","type":"bytes32","indexed":false,"internalType":"bytes32"},{"name":"teamId","type":"uint256","indexed":false,"internalType":"uint256"},{"name":"proposer","type":"address","indexed":false,"internalType":"address"},{"name":"deadline","type":"uint256","indexed":false,"internalType":"uint256"}],"anonymous":false},{"type":"event","name":"RequiredVotesChanged","inputs":[{"name":"oldValue","type":"uint256","indexed":false,"internalType":"uint256"},{"name":"newValue","type":"uint256","indexed":false,"internalType":"uint256"}],"anonymous":false},{"type":"event","name":"Voted","inputs":[{"name":"proposalId","type":"uint256","indexed":true,"internalType":"uint256"},{"name":"voter","type":"address","indexed":true,"internalType":"address"},{"name":"teamId","type":"uint256","indexed":false,"internalType":"uint256"}],"anonymous":false},{"type":"error","name":"OwnableInvalidOwner","inputs":[{"name":"owner","type":"address","internalType":"address"}]},{"type":"error","name":"OwnableUnauthorizedAccount","inputs":[{"name":"account","type":"address","internalType":"address"}]}],"bytecode":{"object":"0x6080604052606460035534801561001557600080fd5b5033600073ffffffffffffffffffffffffffffffffffffffff168173ffffffffffffffffffffffffffffffffffffffff16036100895760006040517f1e4fbdf700000000000000000000000000000000000000000000000000000000815260040161008091906101a3565b60405180910390fd5b6100988161009e60201b60201c565b506101be565b60008060009054906101000a900473ffffffffffffffffffffffffffffffffffffffff169050816000806101000a81548173ffffffffffffffffffffffffffffffffffffffff021916908373ffffffffffffffffffffffffffffffffffffffff1602179055508173ffffffffffffffffffffffffffffffffffffffff168173ffffffffffffffffffffffffffffffffffffffff167f8be0079c531659141344cd1fd0a4f28419497f9722a3daafe3b4186f6b6457e060405160405180910390a35050565b600073ffffffffffffffffffffffffffffffffffffffff82169050919050565b600061018d82610162565b9050919050565b61019d81610182565b82525050565b60006020820190506101b86000830184610194565b92915050565b6116f2806101cd6000396000f3fe608060405234801561001057600080fd5b50600436106100ea5760003560e01c80633e71bc4d1161008c5780638da5cb5b116100665780638da5cb5b14610251578063bd31a4d81461026f578063c4d9dcaf1461028d578063f2fde38b146102a9576100ea565b80633e71bc4d146101fb5780634385963214610217578063715018a614610247576100ea565b80630d61b519116100c85780630d61b5191461015c578063233f625c146101785780632358a915146101965780633b4d01a7146101c6576100ea565b80630121b93f146100ef578063013cf08b1461010b5780630aa35db414610140575b600080fd5b61010960048036038101906101049190610f14565b6102c5565b005b61012560048036038101906101209190610f14565b610630565b60405161013796959493929190610fc5565b60405180910390f35b61015a60048036038101906101559190611052565b610699565b005b61017660048036038101906101719190610f14565b610946565b005b610180610a4b565b60405161018d91906110b9565b60405180910390f35b6101b060048036038101906101ab9190610f14565b610a57565b6040516101bd91906110d4565b60405180910390f35b6101e060048036038101906101db9190610f14565b610a8a565b6040516101f296959493929190610fc5565b60405180910390f35b6102156004803603810190610210919061111b565b610b0b565b005b610231600480360381019061022c919061111b565b610b69565b60405161023e919061115b565b60405180910390f35b61024f610bd4565b005b610259610be8565b60405161026691906110d4565b60405180910390f35b610277610c11565b60405161028491906110b9565b60405180910390f35b6102a760048036038101906102a29190610f14565b610c17565b005b6102c360048036038101906102be9190611176565b610c6a565b005b60006002600083815260200190815260200160002090506000801b816000015403610325576040517f08c379a000000000000000000000000000000000000000000000000000000000815260040161031c90611200565b60405180910390fd5b806004015442111561036c576040517f08c379a00000000000000000000000000000000000000000000000000000000081526004016103639061126c565b60405180910390fd5b8060030160009054906101000a900460ff16156103be576040517f08c379a00000000000000000000000000000000000000000000000000000000081526004016103b5906112d8565b60405180910390fd5b8060060160003373ffffffffffffffffffffffffffffffffffffffff1673ffffffffffffffffffffffffffffffffffffffff16815260200190815260200160002060009054906101000a900460ff161561044d576040517f08c379a000000000000000000000000000000000000000000000000000000000815260040161044490611344565b60405180910390fd5b6000600160008360010154815260200190815260200160002060009054906101000a900473ffffffffffffffffffffffffffffffffffffffff16905060008173ffffffffffffffffffffffffffffffffffffffff166370a08231336040518263ffffffff1660e01b81526004016104c491906110d4565b602060405180830381865afa1580156104e1573d6000803e3d6000fd5b505050506040513d601f19601f820116820180604052508101906105059190611379565b90506000811161054a576040517f08c379a0000000000000000000000000000000000000000000000000000000008152600401610541906113f2565b60405180910390fd5b60018360060160003373ffffffffffffffffffffffffffffffffffffffff1673ffffffffffffffffffffffffffffffffffffffff16815260200190815260200160002060006101000a81548160ff02191690831515021790555060018360020160008282546105b99190611441565b925050819055503373ffffffffffffffffffffffffffffffffffffffff16847f1abe610cf2bf87e57dcc1181fcf5ac0934e843d8344ab9eed6e86c799f62585e856001015460405161060b91906110b9565b60405180910390a360035483600201541061062a5761062984610cf0565b5b50505050565b60026020528060005260406000206000915090508060000154908060010154908060020154908060030160009054906101000a900460ff16908060040154908060050160009054906101000a900473ffffffffffffffffffffffffffffffffffffffff16905086565b600073ffffffffffffffffffffffffffffffffffffffff166001600084815260200190815260200160002060009054906101000a900473ffffffffffffffffffffffffffffffffffffffff1673ffffffffffffffffffffffffffffffffffffffff160361073b576040517f08c379a0000000000000000000000000000000000000000000000000000000008152600401610732906114c1565b60405180910390fd5b6000801b600260008681526020019081526020016000206000015414610796576040517f08c379a000000000000000000000000000000000000000000000000000000000815260040161078d9061152d565b60405180910390fd5b4281116107d8576040517f08c379a00000000000000000000000000000000000000000000000000000000081526004016107cf90611599565b60405180910390fd5b60006001600084815260200190815260200160002060009054906101000a900473ffffffffffffffffffffffffffffffffffffffff16905060008190508073ffffffffffffffffffffffffffffffffffffffff166379cc679033678ac7230489e800006040518363ffffffff1660e01b81526004016108589291906115b9565b600060405180830381600087803b15801561087257600080fd5b505af1158015610886573d6000803e3d6000fd5b505050506000600260008881526020019081526020016000209050858160000181905550848160010181905550838160040181905550338160050160006101000a81548173ffffffffffffffffffffffffffffffffffffffff021916908373ffffffffffffffffffffffffffffffffffffffff160217905550867f02026e9a2e80e8024353ef721685f8b714efa53ca04b84380095a4fd1784080d8787338860405161093594939291906115e2565b60405180910390a250505050505050565b60006002600083815260200190815260200160002090506000801b8160000154036109a6576040517f08c379a000000000000000000000000000000000000000000000000000000000815260040161099d90611200565b60405180910390fd5b806004015442116109ec576040517f08c379a00000000000000000000000000000000000000000000000000000000081526004016109e390611673565b60405180910390fd5b8060030160009054906101000a900460ff1615610a3e576040517f08c379a0000000000000000000000000000000000000000000000000000000008152600401610a35906112d8565b60405180910390fd5b610a4782610cf0565b5050565b678ac7230489e8000081565b60016020528060005260406000206000915054906101000a900473ffffffffffffffffffffffffffffffffffffffff1681565b60008060008060008060006002600089815260200190815260200160002090508060000154816001015482600201548360030160009054906101000a900460ff1684600401548560050160009054906101000a900473ffffffffffffffffffffffffffffffffffffffff169650965096509650965096505091939550919395565b610b13610d86565b806001600084815260200190815260200160002060006101000a81548173ffffffffffffffffffffffffffffffffffffffff021916908373ffffffffffffffffffffffffffffffffffffffff1602179055505050565b60006002600084815260200190815260200160002060060160008373ffffffffffffffffffffffffffffffffffffffff1673ffffffffffffffffffffffffffffffffffffffff16815260200190815260200160002060009054906101000a900460ff16905092915050565b610bdc610d86565b610be66000610e0d565b565b60008060009054906101000a900473ffffffffffffffffffffffffffffffffffffffff16905090565b60035481565b610c1f610d86565b60006003549050816003819055507fc95b72dcf2e3ffb54c353d6b047b3d49b881ec26a065981b89eafcd047b5f6808183604051610c5e929190611693565b60405180910390a15050565b610c72610d86565b600073ffffffffffffffffffffffffffffffffffffffff168173ffffffffffffffffffffffffffffffffffffffff1603610ce45760006040517f1e4fbdf7000000000000000000000000000000000000000000000000000000008152600401610cdb91906110d4565b60405180910390fd5b610ced81610e0d565b50565b60006002600083815260200190815260200160002090508060030160009054906101000a900460ff16610d825760018160030160006101000a81548160ff0219169083151502179055506000600354826002015410159050827f948f4a9cd986f1118c3fbd459f7a22b23c0693e1ca3ef06a6a8be5aa7d39cc0382604051610d78919061115b565b60405180910390a2505b5050565b610d8e610ed1565b73ffffffffffffffffffffffffffffffffffffffff16610dac610be8565b73ffffffffffffffffffffffffffffffffffffffff1614610e0b57610dcf610ed1565b6040517f118cdaa7000000000000000000000000000000000000000000000000000000008152600401610e0291906110d4565b60405180910390fd5b565b60008060009054906101000a900473ffffffffffffffffffffffffffffffffffffffff169050816000806101000a81548173ffffffffffffffffffffffffffffffffffffffff021916908373ffffffffffffffffffffffffffffffffffffffff1602179055508173ffffffffffffffffffffffffffffffffffffffff168173ffffffffffffffffffffffffffffffffffffffff167f8be0079c531659141344cd1fd0a4f28419497f9722a3daafe3b4186f6b6457e060405160405180910390a35050565b600033905090565b600080fd5b6000819050919050565b610ef181610ede565b8114610efc57600080fd5b50565b600081359050610f0e81610ee8565b92915050565b600060208284031215610f2a57610f29610ed9565b5b6000610f3884828501610eff565b91505092915050565b6000819050919050565b610f5481610f41565b82525050565b610f6381610ede565b82525050565b60008115159050919050565b610f7e81610f69565b82525050565b600073ffffffffffffffffffffffffffffffffffffffff82169050919050565b6000610faf82610f84565b9050919050565b610fbf81610fa4565b82525050565b600060c082019050610fda6000830189610f4b565b610fe76020830188610f5a565b610ff46040830187610f5a565b6110016060830186610f75565b61100e6080830185610f5a565b61101b60a0830184610fb6565b979650505050505050565b61102f81610f41565b811461103a57600080fd5b50565b60008135905061104c81611026565b92915050565b6000806000806080858703121561106c5761106b610ed9565b5b600061107a87828801610eff565b945050602061108b8782880161103d565b935050604061109c87828801610eff565b92505060606110ad87828801610eff565b91505092959194509250565b60006020820190506110ce6000830184610f5a565b92915050565b60006020820190506110e96000830184610fb6565b92915050565b6110f881610fa4565b811461110357600080fd5b50565b600081359050611115816110ef565b92915050565b6000806040838503121561113257611131610ed9565b5b600061114085828601610eff565b925050602061115185828601611106565b9150509250929050565b60006020820190506111706000830184610f75565b92915050565b60006020828403121561118c5761118b610ed9565b5b600061119a84828501611106565b91505092915050565b600082825260208201905092915050565b7f50726f706f73616c20646f6573206e6f74206578697374000000000000000000600082015250565b60006111ea6017836111a3565b91506111f5826111b4565b602082019050919050565b60006020820190508181036000830152611219816111dd565b9050919050565b7f566f74696e6720706572696f6420656e64656400000000000000000000000000600082015250565b60006112566013836111a3565b915061126182611220565b602082019050919050565b6000602082019050818103600083015261128581611249565b9050919050565b7f50726f706f73616c20616c726561647920657865637574656400000000000000600082015250565b60006112c26019836111a3565b91506112cd8261128c565b602082019050919050565b600060208201905081810360008301526112f1816112b5565b9050919050565b7f416c726561647920766f74656400000000000000000000000000000000000000600082015250565b600061132e600d836111a3565b9150611339826112f8565b602082019050919050565b6000602082019050818103600083015261135d81611321565b9050919050565b60008151905061137381610ee8565b92915050565b60006020828403121561138f5761138e610ed9565b5b600061139d84828501611364565b91505092915050565b7f4d75737420686f6c64207465616d20746f6b656e20746f20766f746500000000600082015250565b60006113dc601c836111a3565b91506113e7826113a6565b602082019050919050565b6000602082019050818103600083015261140b816113cf565b9050919050565b7f4e487b7100000000000000000000000000000000000000000000000000000000600052601160045260246000fd5b600061144c82610ede565b915061145783610ede565b925082820190508082111561146f5761146e611412565b5b92915050565b7f5465616d20746f6b656e206e6f74207365740000000000000000000000000000600082015250565b60006114ab6012836111a3565b91506114b682611475565b602082019050919050565b600060208201905081810360008301526114da8161149e565b9050919050565b7f50726f706f73616c20616c726561647920657869737473000000000000000000600082015250565b60006115176017836111a3565b9150611522826114e1565b602082019050919050565b600060208201905081810360008301526115468161150a565b9050919050565b7f446561646c696e65206d75737420626520696e20746865206675747572650000600082015250565b6000611583601e836111a3565b915061158e8261154d565b602082019050919050565b600060208201905081810360008301526115b281611576565b9050919050565b60006040820190506115ce6000830185610fb6565b6115db6020830184610f5a565b9392505050565b60006080820190506115f76000830187610f4b565b6116046020830186610f5a565b6116116040830185610fb6565b61161e6060830184610f5a565b95945050505050565b7f566f74696e6720706572696f64206e6f7420656e646564000000000000000000600082015250565b600061165d6017836111a3565b915061166882611627565b602082019050919050565b6000602082019050818103600083015261168c81611650565b9050919050565b60006040820190506116a86000830185610f5a565b6116b56020830184610f5a565b939250505056fea2646970667358221220494043b768f618e39fb3b6a69b6579a2d4996adb00173a790bde232c55452cb664736f6c634300081c0033","linkReferences":{}},"methodIdentifiers":{"PROPOSAL_FEE()":"233f625c","executeProposal(uint256)":"0d61b519","getProposalDetails(uint256)":"3b4d01a7","hasVoted(uint256,address)":"43859632","owner()":"8da5cb5b","proposals(uint256)":"013cf08b","registerProposal(uint256,bytes32,uint256,uint256)":"0aa35db4","renounceOwnership()":"715018a6","requiredVotes()":"bd31a4d8","setRequiredVotes(uint256)":"c4d9dcaf","setTeamToken(uint256,address)":"3e71bc4d","teamTokens(uint256)":"2358a915","transferOwnership(address)":"f2fde38b","vote(uint256)":"0121b93f"},"id":27}